{
	"purchase.sol": {
		"Purchase": {
			"abi": [
				{
					"inputs": [],
					"stateMutability": "payable",
					"type": "constructor"
				},
				{
					"inputs": [],
					"name": "BuyerDeadlineNotExceeded",
					"type": "error"
				},
				{
					"inputs": [],
					"name": "InvalidState",
					"type": "error"
				},
				{
					"inputs": [],
					"name": "OnlyBuyer",
					"type": "error"
				},
				{
					"inputs": [],
					"name": "OnlySeller",
					"type": "error"
				},
				{
					"inputs": [],
					"name": "ValueNotEven",
					"type": "error"
				},
				{
					"anonymous": false,
					"inputs": [],
					"name": "Aborted",
					"type": "event"
				},
				{
					"anonymous": false,
					"inputs": [],
					"name": "ItemReceived",
					"type": "event"
				},
				{
					"anonymous": false,
					"inputs": [],
					"name": "PurchaseConfirmed",
					"type": "event"
				},
				{
					"anonymous": false,
					"inputs": [],
					"name": "SellerRefunded",
					"type": "event"
				},
				{
					"inputs": [],
					"name": "abort",
					"outputs": [],
					"stateMutability": "nonpayable",
					"type": "function"
				},
				{
					"inputs": [],
					"name": "buyer",
					"outputs": [
						{
							"internalType": "address payable",
							"name": "",
							"type": "address"
						}
					],
					"stateMutability": "view",
					"type": "function"
				},
				{
					"inputs": [],
					"name": "completePurchase",
					"outputs": [],
					"stateMutability": "nonpayable",
					"type": "function"
				},
				{
					"inputs": [],
					"name": "confirmPurchase",
					"outputs": [],
					"stateMutability": "payable",
					"type": "function"
				},
				{
					"inputs": [],
					"name": "confirmationTime",
					"outputs": [
						{
							"internalType": "uint256",
							"name": "",
							"type": "uint256"
						}
					],
					"stateMutability": "view",
					"type": "function"
				},
				{
					"inputs": [],
					"name": "seller",
					"outputs": [
						{
							"internalType": "address payable",
							"name": "",
							"type": "address"
						}
					],
					"stateMutability": "view",
					"type": "function"
				},
				{
					"inputs": [],
					"name": "state",
					"outputs": [
						{
							"internalType": "enum Purchase.State",
							"name": "",
							"type": "uint8"
						}
					],
					"stateMutability": "view",
					"type": "function"
				},
				{
					"inputs": [],
					"name": "value",
					"outputs": [
						{
							"internalType": "uint256",
							"name": "",
							"type": "uint256"
						}
					],
					"stateMutability": "view",
					"type": "function"
				}
			],
			"devdoc": {
				"kind": "dev",
				"methods": {},
				"version": 1
			},
			"evm": {
				"assembly": "    /* \"purchase.sol\":60:3353  contract Purchase {... */\n  mstore(0x40, 0x80)\n    /* \"purchase.sol\":1759:1769  msg.sender */\n  caller\n    /* \"purchase.sol\":1742:1748  seller */\n  0x01\n  0x00\n    /* \"purchase.sol\":1742:1770  seller = payable(msg.sender) */\n  0x0100\n  exp\n  dup2\n  sload\n  dup2\n  0xffffffffffffffffffffffffffffffffffffffff\n  mul\n  not\n  and\n  swap1\n  dup4\n  0xffffffffffffffffffffffffffffffffffffffff\n  and\n  mul\n  or\n  swap1\n  sstore\n  pop\n    /* \"purchase.sol\":1800:1801  2 */\n  0x02\n    /* \"purchase.sol\":1788:1797  msg.value */\n  callvalue\n    /* \"purchase.sol\":1788:1801  msg.value / 2 */\n  tag_3\n  swap2\n  swap1\n  tag_4\n  jump\t// in\ntag_3:\n    /* \"purchase.sol\":1780:1785  value */\n  0x00\n    /* \"purchase.sol\":1780:1801  value = msg.value / 2 */\n  dup2\n  swap1\n  sstore\n  pop\n    /* \"purchase.sol\":1830:1839  msg.value */\n  callvalue\n    /* \"purchase.sol\":1820:1825  value */\n  sload(0x00)\n    /* \"purchase.sol\":1816:1817  2 */\n  0x02\n    /* \"purchase.sol\":1816:1825  2 * value */\n  tag_5\n  swap2\n  swap1\n  tag_6\n  jump\t// in\ntag_5:\n    /* \"purchase.sol\":1815:1839  (2 * value) != msg.value */\n  eq\n    /* \"purchase.sol\":1811:1874  if ((2 * value) != msg.value)... */\n  tag_7\n  jumpi\n    /* \"purchase.sol\":1860:1874  ValueNotEven() */\n  mload(0x40)\n  0xbe3e4c4200000000000000000000000000000000000000000000000000000000\n  dup2\n  mstore\n  0x04\n  add\n  mload(0x40)\n  dup1\n  swap2\n  sub\n  swap1\n  revert\n    /* \"purchase.sol\":1811:1874  if ((2 * value) != msg.value)... */\ntag_7:\n    /* \"purchase.sol\":60:3353  contract Purchase {... */\n  jump(tag_8)\n    /* \"#utility.yul\":7:192   */\ntag_4:\n    /* \"#utility.yul\":47:48   */\n  0x00\n    /* \"#utility.yul\":64:84   */\n  tag_11\n    /* \"#utility.yul\":82:83   */\n  dup3\n    /* \"#utility.yul\":64:84   */\n  tag_12\n  jump\t// in\ntag_11:\n    /* \"#utility.yul\":59:84   */\n  swap2\n  pop\n    /* \"#utility.yul\":98:118   */\n  tag_13\n    /* \"#utility.yul\":116:117   */\n  dup4\n    /* \"#utility.yul\":98:118   */\n  tag_12\n  jump\t// in\ntag_13:\n    /* \"#utility.yul\":93:118   */\n  swap3\n  pop\n    /* \"#utility.yul\":137:138   */\n  dup3\n    /* \"#utility.yul\":127:162   */\n  tag_14\n  jumpi\n    /* \"#utility.yul\":142:160   */\n  tag_15\n  tag_16\n  jump\t// in\ntag_15:\n    /* \"#utility.yul\":127:162   */\ntag_14:\n    /* \"#utility.yul\":184:185   */\n  dup3\n    /* \"#utility.yul\":181:182   */\n  dup3\n    /* \"#utility.yul\":177:186   */\n  div\n    /* \"#utility.yul\":172:186   */\n  swap1\n  pop\n    /* \"#utility.yul\":7:192   */\n  swap3\n  swap2\n  pop\n  pop\n  jump\t// out\n    /* \"#utility.yul\":198:546   */\ntag_6:\n    /* \"#utility.yul\":238:245   */\n  0x00\n    /* \"#utility.yul\":261:281   */\n  tag_18\n    /* \"#utility.yul\":279:280   */\n  dup3\n    /* \"#utility.yul\":261:281   */\n  tag_12\n  jump\t// in\ntag_18:\n    /* \"#utility.yul\":256:281   */\n  swap2\n  pop\n    /* \"#utility.yul\":295:315   */\n  tag_19\n    /* \"#utility.yul\":313:314   */\n  dup4\n    /* \"#utility.yul\":295:315   */\n  tag_12\n  jump\t// in\ntag_19:\n    /* \"#utility.yul\":290:315   */\n  swap3\n  pop\n    /* \"#utility.yul\":483:484   */\n  dup2\n    /* \"#utility.yul\":415:481   */\n  0xffffffffffffffffffffffffffffffffffffffffffffffffffffffffffffffff\n    /* \"#utility.yul\":411:485   */\n  div\n    /* \"#utility.yul\":408:409   */\n  dup4\n    /* \"#utility.yul\":405:486   */\n  gt\n    /* \"#utility.yul\":400:401   */\n  dup3\n    /* \"#utility.yul\":393:402   */\n  iszero\n    /* \"#utility.yul\":386:403   */\n  iszero\n    /* \"#utility.yul\":382:487   */\n  and\n    /* \"#utility.yul\":379:510   */\n  iszero\n  tag_20\n  jumpi\n    /* \"#utility.yul\":490:508   */\n  tag_21\n  tag_22\n  jump\t// in\ntag_21:\n    /* \"#utility.yul\":379:510   */\ntag_20:\n    /* \"#utility.yul\":538:539   */\n  dup3\n    /* \"#utility.yul\":535:536   */\n  dup3\n    /* \"#utility.yul\":531:540   */\n  mul\n    /* \"#utility.yul\":520:540   */\n  swap1\n  pop\n    /* \"#utility.yul\":198:546   */\n  swap3\n  swap2\n  pop\n  pop\n  jump\t// out\n    /* \"#utility.yul\":552:629   */\ntag_12:\n    /* \"#utility.yul\":589:596   */\n  0x00\n    /* \"#utility.yul\":618:623   */\n  dup2\n    /* \"#utility.yul\":607:623   */\n  swap1\n  pop\n    /* \"#utility.yul\":552:629   */\n  swap2\n  swap1\n  pop\n  jump\t// out\n    /* \"#utility.yul\":635:815   */\ntag_22:\n    /* \"#utility.yul\":683:760   */\n  0x4e487b7100000000000000000000000000000000000000000000000000000000\n    /* \"#utility.yul\":680:681   */\n  0x00\n    /* \"#utility.yul\":673:761   */\n  mstore\n    /* \"#utility.yul\":780:784   */\n  0x11\n    /* \"#utility.yul\":777:778   */\n  0x04\n    /* \"#utility.yul\":770:785   */\n  mstore\n    /* \"#utility.yul\":804:808   */\n  0x24\n    /* \"#utility.yul\":801:802   */\n  0x00\n    /* \"#utility.yul\":794:809   */\n  revert\n    /* \"#utility.yul\":821:1001   */\ntag_16:\n    /* \"#utility.yul\":869:946   */\n  0x4e487b7100000000000000000000000000000000000000000000000000000000\n    /* \"#utility.yul\":866:867   */\n  0x00\n    /* \"#utility.yul\":859:947   */\n  mstore\n    /* \"#utility.yul\":966:970   */\n  0x12\n    /* \"#utility.yul\":963:964   */\n  0x04\n    /* \"#utility.yul\":956:971   */\n  mstore\n    /* \"#utility.yul\":990:994   */\n  0x24\n    /* \"#utility.yul\":987:988   */\n  0x00\n    /* \"#utility.yul\":980:995   */\n  revert\n    /* \"purchase.sol\":60:3353  contract Purchase {... */\ntag_8:\n  dataSize(sub_0)\n  dup1\n  dataOffset(sub_0)\n  0x00\n  codecopy\n  0x00\n  return\nstop\n\nsub_0: assembly {\n        /* \"purchase.sol\":60:3353  contract Purchase {... */\n      mstore(0x40, 0x80)\n      jumpi(tag_1, lt(calldatasize, 0x04))\n      shr(0xe0, calldataload(0x00))\n      dup1\n      0x679e9f3a\n      gt\n      tag_10\n      jumpi\n      dup1\n      0x679e9f3a\n      eq\n      tag_6\n      jumpi\n      dup1\n      0x7150d8ae\n      eq\n      tag_7\n      jumpi\n      dup1\n      0xc19d93fb\n      eq\n      tag_8\n      jumpi\n      dup1\n      0xd6960697\n      eq\n      tag_9\n      jumpi\n      jump(tag_1)\n    tag_10:\n      dup1\n      0x08551a53\n      eq\n      tag_2\n      jumpi\n      dup1\n      0x35a063b4\n      eq\n      tag_3\n      jumpi\n      dup1\n      0x3fa4f245\n      eq\n      tag_4\n      jumpi\n      dup1\n      0x482174ad\n      eq\n      tag_5\n      jumpi\n    tag_1:\n      0x00\n      dup1\n      revert\n        /* \"purchase.sol\":107:136  address payable public seller */\n    tag_2:\n      callvalue\n      dup1\n      iszero\n      tag_11\n      jumpi\n      0x00\n      dup1\n      revert\n    tag_11:\n      pop\n      tag_12\n      tag_13\n      jump\t// in\n    tag_12:\n      mload(0x40)\n      tag_14\n      swap2\n      swap1\n      tag_15\n      jump\t// in\n    tag_14:\n      mload(0x40)\n      dup1\n      swap2\n      sub\n      swap1\n      return\n        /* \"purchase.sol\":2070:2446  function abort()... */\n    tag_3:\n      callvalue\n      dup1\n      iszero\n      tag_16\n      jumpi\n      0x00\n      dup1\n      revert\n    tag_16:\n      pop\n      tag_17\n      tag_18\n      jump\t// in\n    tag_17:\n      stop\n        /* \"purchase.sol\":84:101  uint public value */\n    tag_4:\n      callvalue\n      dup1\n      iszero\n      tag_19\n      jumpi\n      0x00\n      dup1\n      revert\n    tag_19:\n      pop\n      tag_20\n      tag_21\n      jump\t// in\n    tag_20:\n      mload(0x40)\n      tag_22\n      swap2\n      swap1\n      tag_23\n      jump\t// in\n    tag_22:\n      mload(0x40)\n      dup1\n      swap2\n      sub\n      swap1\n      return\n        /* \"purchase.sol\":2916:3351  function completePurchase() ... */\n    tag_5:\n      callvalue\n      dup1\n      iszero\n      tag_24\n      jumpi\n      0x00\n      dup1\n      revert\n    tag_24:\n      pop\n      tag_25\n      tag_26\n      jump\t// in\n    tag_25:\n      stop\n        /* \"purchase.sol\":176:204  uint public confirmationTime */\n    tag_6:\n      callvalue\n      dup1\n      iszero\n      tag_27\n      jumpi\n      0x00\n      dup1\n      revert\n    tag_27:\n      pop\n      tag_28\n      tag_29\n      jump\t// in\n    tag_28:\n      mload(0x40)\n      tag_30\n      swap2\n      swap1\n      tag_23\n      jump\t// in\n    tag_30:\n      mload(0x40)\n      dup1\n      swap2\n      sub\n      swap1\n      return\n        /* \"purchase.sol\":142:170  address payable public buyer */\n    tag_7:\n      callvalue\n      dup1\n      iszero\n      tag_31\n      jumpi\n      0x00\n      dup1\n      revert\n    tag_31:\n      pop\n      tag_32\n      tag_33\n      jump\t// in\n    tag_32:\n      mload(0x40)\n      tag_34\n      swap2\n      swap1\n      tag_15\n      jump\t// in\n    tag_34:\n      mload(0x40)\n      dup1\n      swap2\n      sub\n      swap1\n      return\n        /* \"purchase.sol\":348:366  State public state */\n    tag_8:\n      callvalue\n      dup1\n      iszero\n      tag_35\n      jumpi\n      0x00\n      dup1\n      revert\n    tag_35:\n      pop\n      tag_36\n      tag_37\n      jump\t// in\n    tag_36:\n      mload(0x40)\n      tag_38\n      swap2\n      swap1\n      tag_39\n      jump\t// in\n    tag_38:\n      mload(0x40)\n      dup1\n      swap2\n      sub\n      swap1\n      return\n        /* \"purchase.sol\":2619:2910  function confirmPurchase()... */\n    tag_9:\n      tag_40\n      tag_41\n      jump\t// in\n    tag_40:\n      stop\n        /* \"purchase.sol\":107:136  address payable public seller */\n    tag_13:\n      0x01\n      0x00\n      swap1\n      sload\n      swap1\n      0x0100\n      exp\n      swap1\n      div\n      0xffffffffffffffffffffffffffffffffffffffff\n      and\n      dup2\n      jump\t// out\n        /* \"purchase.sol\":2070:2446  function abort()... */\n    tag_18:\n        /* \"purchase.sol\":1056:1062  seller */\n      0x01\n      0x00\n      swap1\n      sload\n      swap1\n      0x0100\n      exp\n      swap1\n      div\n      0xffffffffffffffffffffffffffffffffffffffff\n      and\n        /* \"purchase.sol\":1042:1062  msg.sender != seller */\n      0xffffffffffffffffffffffffffffffffffffffff\n      and\n        /* \"purchase.sol\":1042:1052  msg.sender */\n      caller\n        /* \"purchase.sol\":1042:1062  msg.sender != seller */\n      0xffffffffffffffffffffffffffffffffffffffff\n      and\n      eq\n        /* \"purchase.sol\":1038:1095  if (msg.sender != seller)... */\n      tag_43\n      jumpi\n        /* \"purchase.sol\":1083:1095  OnlySeller() */\n      mload(0x40)\n      0x85d1f72600000000000000000000000000000000000000000000000000000000\n      dup2\n      mstore\n      0x04\n      add\n      mload(0x40)\n      dup1\n      swap2\n      sub\n      swap1\n      revert\n        /* \"purchase.sol\":1038:1095  if (msg.sender != seller)... */\n    tag_43:\n        /* \"purchase.sol\":2139:2152  State.Created */\n      0x00\n        /* \"purchase.sol\":1173:1179  state_ */\n      dup1\n        /* \"purchase.sol\":1164:1179  state != state_ */\n      0x03\n      dup2\n      gt\n      iszero\n      tag_45\n      jumpi\n      tag_46\n      tag_47\n      jump\t// in\n    tag_46:\n    tag_45:\n        /* \"purchase.sol\":1164:1169  state */\n      0x04\n      0x00\n      swap1\n      sload\n      swap1\n      0x0100\n      exp\n      swap1\n      div\n      0xff\n      and\n        /* \"purchase.sol\":1164:1179  state != state_ */\n      0x03\n      dup2\n      gt\n      iszero\n      tag_48\n      jumpi\n      tag_49\n      tag_47\n      jump\t// in\n    tag_49:\n    tag_48:\n      eq\n        /* \"purchase.sol\":1160:1214  if (state != state_)... */\n      tag_50\n      jumpi\n        /* \"purchase.sol\":1200:1214  InvalidState() */\n      mload(0x40)\n      0xbaf3f0f700000000000000000000000000000000000000000000000000000000\n      dup2\n      mstore\n      0x04\n      add\n      mload(0x40)\n      dup1\n      swap2\n      sub\n      swap1\n      revert\n        /* \"purchase.sol\":1160:1214  if (state != state_)... */\n    tag_50:\n        /* \"purchase.sol\":2173:2182  Aborted() */\n      0x72c874aeff0b183a56e2b79c71b46e1aed4dee5e09862134b8821ba2fddbf8bf\n      mload(0x40)\n      mload(0x40)\n      dup1\n      swap2\n      sub\n      swap1\n      log1\n        /* \"purchase.sol\":2200:2214  State.Inactive */\n      0x03\n        /* \"purchase.sol\":2192:2197  state */\n      0x04\n      0x00\n        /* \"purchase.sol\":2192:2214  state = State.Inactive */\n      0x0100\n      exp\n      dup2\n      sload\n      dup2\n      0xff\n      mul\n      not\n      and\n      swap1\n      dup4\n      0x03\n      dup2\n      gt\n      iszero\n      tag_52\n      jumpi\n      tag_53\n      tag_47\n      jump\t// in\n    tag_53:\n    tag_52:\n      mul\n      or\n      swap1\n      sstore\n      pop\n        /* \"purchase.sol\":2401:2407  seller */\n      0x01\n      0x00\n      swap1\n      sload\n      swap1\n      0x0100\n      exp\n      swap1\n      div\n      0xffffffffffffffffffffffffffffffffffffffff\n      and\n        /* \"purchase.sol\":2401:2416  seller.transfer */\n      0xffffffffffffffffffffffffffffffffffffffff\n      and\n        /* \"purchase.sol\":2401:2439  seller.transfer(address(this).balance) */\n      0x08fc\n        /* \"purchase.sol\":2417:2438  address(this).balance */\n      selfbalance\n        /* \"purchase.sol\":2401:2439  seller.transfer(address(this).balance) */\n      swap1\n      dup2\n      iszero\n      mul\n      swap1\n      mload(0x40)\n      0x00\n      mload(0x40)\n      dup1\n      dup4\n      sub\n      dup2\n      dup6\n      dup9\n      dup9\n      call\n      swap4\n      pop\n      pop\n      pop\n      pop\n      iszero\n      dup1\n      iszero\n      tag_55\n      jumpi\n      returndatasize\n      0x00\n      dup1\n      returndatacopy\n      revert(0x00, returndatasize)\n    tag_55:\n      pop\n        /* \"purchase.sol\":1105:1106  _ */\n      pop\n        /* \"purchase.sol\":2070:2446  function abort()... */\n      jump\t// out\n        /* \"purchase.sol\":84:101  uint public value */\n    tag_21:\n      sload(0x00)\n      dup2\n      jump\t// out\n        /* \"purchase.sol\":2916:3351  function completePurchase() ... */\n    tag_26:\n        /* \"purchase.sol\":2978:2990  State.Locked */\n      0x01\n        /* \"purchase.sol\":1173:1179  state_ */\n      dup1\n        /* \"purchase.sol\":1164:1179  state != state_ */\n      0x03\n      dup2\n      gt\n      iszero\n      tag_57\n      jumpi\n      tag_58\n      tag_47\n      jump\t// in\n    tag_58:\n    tag_57:\n        /* \"purchase.sol\":1164:1169  state */\n      0x04\n      0x00\n      swap1\n      sload\n      swap1\n      0x0100\n      exp\n      swap1\n      div\n      0xff\n      and\n        /* \"purchase.sol\":1164:1179  state != state_ */\n      0x03\n      dup2\n      gt\n      iszero\n      tag_59\n      jumpi\n      tag_60\n      tag_47\n      jump\t// in\n    tag_60:\n    tag_59:\n      eq\n        /* \"purchase.sol\":1160:1214  if (state != state_)... */\n      tag_61\n      jumpi\n        /* \"purchase.sol\":1200:1214  InvalidState() */\n      mload(0x40)\n      0xbaf3f0f700000000000000000000000000000000000000000000000000000000\n      dup2\n      mstore\n      0x04\n      add\n      mload(0x40)\n      dup1\n      swap2\n      sub\n      swap1\n      revert\n        /* \"purchase.sol\":1160:1214  if (state != state_)... */\n    tag_61:\n        /* \"purchase.sol\":1299:1304  buyer */\n      0x02\n      0x00\n      swap1\n      sload\n      swap1\n      0x0100\n      exp\n      swap1\n      div\n      0xffffffffffffffffffffffffffffffffffffffff\n      and\n        /* \"purchase.sol\":1285:1304  msg.sender != buyer */\n      0xffffffffffffffffffffffffffffffffffffffff\n      and\n        /* \"purchase.sol\":1285:1295  msg.sender */\n      caller\n        /* \"purchase.sol\":1285:1304  msg.sender != buyer */\n      0xffffffffffffffffffffffffffffffffffffffff\n      and\n      eq\n      iszero\n        /* \"purchase.sol\":1285:1354  msg.sender != buyer && block.timestamp < confirmationTime + 5 minutes */\n      dup1\n      iszero\n      tag_63\n      jumpi\n      pop\n        /* \"purchase.sol\":1345:1354  5 minutes */\n      0x012c\n        /* \"purchase.sol\":1326:1342  confirmationTime */\n      sload(0x03)\n        /* \"purchase.sol\":1326:1354  confirmationTime + 5 minutes */\n      tag_64\n      swap2\n      swap1\n      tag_65\n      jump\t// in\n    tag_64:\n        /* \"purchase.sol\":1308:1323  block.timestamp */\n      timestamp\n        /* \"purchase.sol\":1308:1354  block.timestamp < confirmationTime + 5 minutes */\n      lt\n        /* \"purchase.sol\":1285:1354  msg.sender != buyer && block.timestamp < confirmationTime + 5 minutes */\n    tag_63:\n        /* \"purchase.sol\":1281:1414  if (msg.sender != buyer && block.timestamp < confirmationTime + 5 minutes) {... */\n      iszero\n      tag_66\n      jumpi\n        /* \"purchase.sol\":1377:1403  BuyerDeadlineNotExceeded() */\n      mload(0x40)\n      0xe4bfb80500000000000000000000000000000000000000000000000000000000\n      dup2\n      mstore\n      0x04\n      add\n      mload(0x40)\n      dup1\n      swap2\n      sub\n      swap1\n      revert\n        /* \"purchase.sol\":1281:1414  if (msg.sender != buyer && block.timestamp < confirmationTime + 5 minutes) {... */\n    tag_66:\n        /* \"purchase.sol\":3041:3055  ItemReceived() */\n      0xe89152acd703c9d8c7d28829d443260b411454d45394e7995815140c8cbcbcf7\n      mload(0x40)\n      mload(0x40)\n      dup1\n      swap2\n      sub\n      swap1\n      log1\n        /* \"purchase.sol\":3070:3086  SellerRefunded() */\n      0xfda69c32bcfdba840a167777906b173b607eb8b4d8853b97a80d26e613d858db\n      mload(0x40)\n      mload(0x40)\n      dup1\n      swap2\n      sub\n      swap1\n      log1\n        /* \"purchase.sol\":3262:3276  State.Inactive */\n      0x03\n        /* \"purchase.sol\":3254:3259  state */\n      0x04\n      0x00\n        /* \"purchase.sol\":3254:3276  state = State.Inactive */\n      0x0100\n      exp\n      dup2\n      sload\n      dup2\n      0xff\n      mul\n      not\n      and\n      swap1\n      dup4\n      0x03\n      dup2\n      gt\n      iszero\n      tag_68\n      jumpi\n      tag_69\n      tag_47\n      jump\t// in\n    tag_69:\n    tag_68:\n      mul\n      or\n      swap1\n      sstore\n      pop\n        /* \"purchase.sol\":3287:3292  buyer */\n      0x02\n      0x00\n      swap1\n      sload\n      swap1\n      0x0100\n      exp\n      swap1\n      div\n      0xffffffffffffffffffffffffffffffffffffffff\n      and\n        /* \"purchase.sol\":3287:3301  buyer.transfer */\n      0xffffffffffffffffffffffffffffffffffffffff\n      and\n        /* \"purchase.sol\":3287:3308  buyer.transfer(value) */\n      0x08fc\n        /* \"purchase.sol\":3302:3307  value */\n      sload(0x00)\n        /* \"purchase.sol\":3287:3308  buyer.transfer(value) */\n      swap1\n      dup2\n      iszero\n      mul\n      swap1\n      mload(0x40)\n      0x00\n      mload(0x40)\n      dup1\n      dup4\n      sub\n      dup2\n      dup6\n      dup9\n      dup9\n      call\n      swap4\n      pop\n      pop\n      pop\n      pop\n      iszero\n      dup1\n      iszero\n      tag_71\n      jumpi\n      returndatasize\n      0x00\n      dup1\n      returndatacopy\n      revert(0x00, returndatasize)\n    tag_71:\n      pop\n        /* \"purchase.sol\":3318:3324  seller */\n      0x01\n      0x00\n      swap1\n      sload\n      swap1\n      0x0100\n      exp\n      swap1\n      div\n      0xffffffffffffffffffffffffffffffffffffffff\n      and\n        /* \"purchase.sol\":3318:3333  seller.transfer */\n      0xffffffffffffffffffffffffffffffffffffffff\n      and\n        /* \"purchase.sol\":3318:3344  seller.transfer(3 * value) */\n      0x08fc\n        /* \"purchase.sol\":3338:3343  value */\n      sload(0x00)\n        /* \"purchase.sol\":3334:3335  3 */\n      0x03\n        /* \"purchase.sol\":3334:3343  3 * value */\n      tag_72\n      swap2\n      swap1\n      tag_73\n      jump\t// in\n    tag_72:\n        /* \"purchase.sol\":3318:3344  seller.transfer(3 * value) */\n      swap1\n      dup2\n      iszero\n      mul\n      swap1\n      mload(0x40)\n      0x00\n      mload(0x40)\n      dup1\n      dup4\n      sub\n      dup2\n      dup6\n      dup9\n      dup9\n      call\n      swap4\n      pop\n      pop\n      pop\n      pop\n      iszero\n      dup1\n      iszero\n      tag_75\n      jumpi\n      returndatasize\n      0x00\n      dup1\n      returndatacopy\n      revert(0x00, returndatasize)\n    tag_75:\n      pop\n        /* \"purchase.sol\":2916:3351  function completePurchase() ... */\n      pop\n      jump\t// out\n        /* \"purchase.sol\":176:204  uint public confirmationTime */\n    tag_29:\n      sload(0x03)\n      dup2\n      jump\t// out\n        /* \"purchase.sol\":142:170  address payable public buyer */\n    tag_33:\n      0x02\n      0x00\n      swap1\n      sload\n      swap1\n      0x0100\n      exp\n      swap1\n      div\n      0xffffffffffffffffffffffffffffffffffffffff\n      and\n      dup2\n      jump\t// out\n        /* \"purchase.sol\":348:366  State public state */\n    tag_37:\n      0x04\n      0x00\n      swap1\n      sload\n      swap1\n      0x0100\n      exp\n      swap1\n      div\n      0xff\n      and\n      dup2\n      jump\t// out\n        /* \"purchase.sol\":2619:2910  function confirmPurchase()... */\n    tag_41:\n        /* \"purchase.sol\":2679:2692  State.Created */\n      0x00\n        /* \"purchase.sol\":1173:1179  state_ */\n      dup1\n        /* \"purchase.sol\":1164:1179  state != state_ */\n      0x03\n      dup2\n      gt\n      iszero\n      tag_77\n      jumpi\n      tag_78\n      tag_47\n      jump\t// in\n    tag_78:\n    tag_77:\n        /* \"purchase.sol\":1164:1169  state */\n      0x04\n      0x00\n      swap1\n      sload\n      swap1\n      0x0100\n      exp\n      swap1\n      div\n      0xff\n      and\n        /* \"purchase.sol\":1164:1179  state != state_ */\n      0x03\n      dup2\n      gt\n      iszero\n      tag_79\n      jumpi\n      tag_80\n      tag_47\n      jump\t// in\n    tag_80:\n    tag_79:\n      eq\n        /* \"purchase.sol\":1160:1214  if (state != state_)... */\n      tag_81\n      jumpi\n        /* \"purchase.sol\":1200:1214  InvalidState() */\n      mload(0x40)\n      0xbaf3f0f700000000000000000000000000000000000000000000000000000000\n      dup2\n      mstore\n      0x04\n      add\n      mload(0x40)\n      dup1\n      swap2\n      sub\n      swap1\n      revert\n        /* \"purchase.sol\":1160:1214  if (state != state_)... */\n    tag_81:\n        /* \"purchase.sol\":2730:2735  value */\n      sload(0x00)\n        /* \"purchase.sol\":2726:2727  2 */\n      0x02\n        /* \"purchase.sol\":2726:2735  2 * value */\n      tag_82\n      swap2\n      swap1\n      tag_73\n      jump\t// in\n    tag_82:\n        /* \"purchase.sol\":2712:2721  msg.value */\n      callvalue\n        /* \"purchase.sol\":2712:2736  msg.value == (2 * value) */\n      eq\n        /* \"purchase.sol\":427:437  condition_ */\n      dup1\n        /* \"purchase.sol\":419:438  require(condition_) */\n      tag_84\n      jumpi\n      0x00\n      dup1\n      revert\n    tag_84:\n        /* \"purchase.sol\":2773:2792  PurchaseConfirmed() */\n      0xd5d55c8a68912e9a110618df8d5e2e83b8d83211c57a8ddd1203df92885dc881\n      mload(0x40)\n      mload(0x40)\n      dup1\n      swap2\n      sub\n      swap1\n      log1\n        /* \"purchase.sol\":2821:2836  block.timestamp */\n      timestamp\n        /* \"purchase.sol\":2802:2818  confirmationTime */\n      0x03\n        /* \"purchase.sol\":2802:2836  confirmationTime = block.timestamp */\n      dup2\n      swap1\n      sstore\n      pop\n        /* \"purchase.sol\":2862:2872  msg.sender */\n      caller\n        /* \"purchase.sol\":2846:2851  buyer */\n      0x02\n      0x00\n        /* \"purchase.sol\":2846:2873  buyer = payable(msg.sender) */\n      0x0100\n      exp\n      dup2\n      sload\n      dup2\n      0xffffffffffffffffffffffffffffffffffffffff\n      mul\n      not\n      and\n      swap1\n      dup4\n      0xffffffffffffffffffffffffffffffffffffffff\n      and\n      mul\n      or\n      swap1\n      sstore\n      pop\n        /* \"purchase.sol\":2891:2903  State.Locked */\n      0x01\n        /* \"purchase.sol\":2883:2888  state */\n      0x04\n      0x00\n        /* \"purchase.sol\":2883:2903  state = State.Locked */\n      0x0100\n      exp\n      dup2\n      sload\n      dup2\n      0xff\n      mul\n      not\n      and\n      swap1\n      dup4\n      0x03\n      dup2\n      gt\n      iszero\n      tag_86\n      jumpi\n      tag_87\n      tag_47\n      jump\t// in\n    tag_87:\n    tag_86:\n      mul\n      or\n      swap1\n      sstore\n      pop\n        /* \"purchase.sol\":1224:1225  _ */\n      pop\n        /* \"purchase.sol\":2619:2910  function confirmPurchase()... */\n      pop\n      jump\t// out\n        /* \"#utility.yul\":7:149   */\n    tag_89:\n        /* \"#utility.yul\":110:142   */\n      tag_91\n        /* \"#utility.yul\":136:141   */\n      dup2\n        /* \"#utility.yul\":110:142   */\n      tag_92\n      jump\t// in\n    tag_91:\n        /* \"#utility.yul\":105:108   */\n      dup3\n        /* \"#utility.yul\":98:143   */\n      mstore\n        /* \"#utility.yul\":7:149   */\n      pop\n      pop\n      jump\t// out\n        /* \"#utility.yul\":155:298   */\n    tag_93:\n        /* \"#utility.yul\":248:291   */\n      tag_95\n        /* \"#utility.yul\":285:290   */\n      dup2\n        /* \"#utility.yul\":248:291   */\n      tag_96\n      jump\t// in\n    tag_95:\n        /* \"#utility.yul\":243:246   */\n      dup3\n        /* \"#utility.yul\":236:292   */\n      mstore\n        /* \"#utility.yul\":155:298   */\n      pop\n      pop\n      jump\t// out\n        /* \"#utility.yul\":304:422   */\n    tag_97:\n        /* \"#utility.yul\":391:415   */\n      tag_99\n        /* \"#utility.yul\":409:414   */\n      dup2\n        /* \"#utility.yul\":391:415   */\n      tag_100\n      jump\t// in\n    tag_99:\n        /* \"#utility.yul\":386:389   */\n      dup3\n        /* \"#utility.yul\":379:416   */\n      mstore\n        /* \"#utility.yul\":304:422   */\n      pop\n      pop\n      jump\t// out\n        /* \"#utility.yul\":428:682   */\n    tag_15:\n        /* \"#utility.yul\":537:541   */\n      0x00\n        /* \"#utility.yul\":575:577   */\n      0x20\n        /* \"#utility.yul\":564:573   */\n      dup3\n        /* \"#utility.yul\":560:578   */\n      add\n        /* \"#utility.yul\":552:578   */\n      swap1\n      pop\n        /* \"#utility.yul\":588:675   */\n      tag_102\n        /* \"#utility.yul\":672:673   */\n      0x00\n        /* \"#utility.yul\":661:670   */\n      dup4\n        /* \"#utility.yul\":657:674   */\n      add\n        /* \"#utility.yul\":648:654   */\n      dup5\n        /* \"#utility.yul\":588:675   */\n      tag_89\n      jump\t// in\n    tag_102:\n        /* \"#utility.yul\":428:682   */\n      swap3\n      swap2\n      pop\n      pop\n      jump\t// out\n        /* \"#utility.yul\":688:922   */\n    tag_39:\n        /* \"#utility.yul\":787:791   */\n      0x00\n        /* \"#utility.yul\":825:827   */\n      0x20\n        /* \"#utility.yul\":814:823   */\n      dup3\n        /* \"#utility.yul\":810:828   */\n      add\n        /* \"#utility.yul\":802:828   */\n      swap1\n      pop\n        /* \"#utility.yul\":838:915   */\n      tag_104\n        /* \"#utility.yul\":912:913   */\n      0x00\n        /* \"#utility.yul\":901:910   */\n      dup4\n        /* \"#utility.yul\":897:914   */\n      add\n        /* \"#utility.yul\":888:894   */\n      dup5\n        /* \"#utility.yul\":838:915   */\n      tag_93\n      jump\t// in\n    tag_104:\n        /* \"#utility.yul\":688:922   */\n      swap3\n      swap2\n      pop\n      pop\n      jump\t// out\n        /* \"#utility.yul\":928:1150   */\n    tag_23:\n        /* \"#utility.yul\":1021:1025   */\n      0x00\n        /* \"#utility.yul\":1059:1061   */\n      0x20\n        /* \"#utility.yul\":1048:1057   */\n      dup3\n        /* \"#utility.yul\":1044:1062   */\n      add\n        /* \"#utility.yul\":1036:1062   */\n      swap1\n      pop\n        /* \"#utility.yul\":1072:1143   */\n      tag_106\n        /* \"#utility.yul\":1140:1141   */\n      0x00\n        /* \"#utility.yul\":1129:1138   */\n      dup4\n        /* \"#utility.yul\":1125:1142   */\n      add\n        /* \"#utility.yul\":1116:1122   */\n      dup5\n        /* \"#utility.yul\":1072:1143   */\n      tag_97\n      jump\t// in\n    tag_106:\n        /* \"#utility.yul\":928:1150   */\n      swap3\n      swap2\n      pop\n      pop\n      jump\t// out\n        /* \"#utility.yul\":1156:1461   */\n    tag_65:\n        /* \"#utility.yul\":1196:1199   */\n      0x00\n        /* \"#utility.yul\":1215:1235   */\n      tag_108\n        /* \"#utility.yul\":1233:1234   */\n      dup3\n        /* \"#utility.yul\":1215:1235   */\n      tag_100\n      jump\t// in\n    tag_108:\n        /* \"#utility.yul\":1210:1235   */\n      swap2\n      pop\n        /* \"#utility.yul\":1249:1269   */\n      tag_109\n        /* \"#utility.yul\":1267:1268   */\n      dup4\n        /* \"#utility.yul\":1249:1269   */\n      tag_100\n      jump\t// in\n    tag_109:\n        /* \"#utility.yul\":1244:1269   */\n      swap3\n      pop\n        /* \"#utility.yul\":1403:1404   */\n      dup3\n        /* \"#utility.yul\":1335:1401   */\n      0xffffffffffffffffffffffffffffffffffffffffffffffffffffffffffffffff\n        /* \"#utility.yul\":1331:1405   */\n      sub\n        /* \"#utility.yul\":1328:1329   */\n      dup3\n        /* \"#utility.yul\":1325:1406   */\n      gt\n        /* \"#utility.yul\":1322:1429   */\n      iszero\n      tag_110\n      jumpi\n        /* \"#utility.yul\":1409:1427   */\n      tag_111\n      tag_112\n      jump\t// in\n    tag_111:\n        /* \"#utility.yul\":1322:1429   */\n    tag_110:\n        /* \"#utility.yul\":1453:1454   */\n      dup3\n        /* \"#utility.yul\":1450:1451   */\n      dup3\n        /* \"#utility.yul\":1446:1455   */\n      add\n        /* \"#utility.yul\":1439:1455   */\n      swap1\n      pop\n        /* \"#utility.yul\":1156:1461   */\n      swap3\n      swap2\n      pop\n      pop\n      jump\t// out\n        /* \"#utility.yul\":1467:1815   */\n    tag_73:\n        /* \"#utility.yul\":1507:1514   */\n      0x00\n        /* \"#utility.yul\":1530:1550   */\n      tag_114\n        /* \"#utility.yul\":1548:1549   */\n      dup3\n        /* \"#utility.yul\":1530:1550   */\n      tag_100\n      jump\t// in\n    tag_114:\n        /* \"#utility.yul\":1525:1550   */\n      swap2\n      pop\n        /* \"#utility.yul\":1564:1584   */\n      tag_115\n        /* \"#utility.yul\":1582:1583   */\n      dup4\n        /* \"#utility.yul\":1564:1584   */\n      tag_100\n      jump\t// in\n    tag_115:\n        /* \"#utility.yul\":1559:1584   */\n      swap3\n      pop\n        /* \"#utility.yul\":1752:1753   */\n      dup2\n        /* \"#utility.yul\":1684:1750   */\n      0xffffffffffffffffffffffffffffffffffffffffffffffffffffffffffffffff\n        /* \"#utility.yul\":1680:1754   */\n      div\n        /* \"#utility.yul\":1677:1678   */\n      dup4\n        /* \"#utility.yul\":1674:1755   */\n      gt\n        /* \"#utility.yul\":1669:1670   */\n      dup3\n        /* \"#utility.yul\":1662:1671   */\n      iszero\n        /* \"#utility.yul\":1655:1672   */\n      iszero\n        /* \"#utility.yul\":1651:1756   */\n      and\n        /* \"#utility.yul\":1648:1779   */\n      iszero\n      tag_116\n      jumpi\n        /* \"#utility.yul\":1759:1777   */\n      tag_117\n      tag_112\n      jump\t// in\n    tag_117:\n        /* \"#utility.yul\":1648:1779   */\n    tag_116:\n        /* \"#utility.yul\":1807:1808   */\n      dup3\n        /* \"#utility.yul\":1804:1805   */\n      dup3\n        /* \"#utility.yul\":1800:1809   */\n      mul\n        /* \"#utility.yul\":1789:1809   */\n      swap1\n      pop\n        /* \"#utility.yul\":1467:1815   */\n      swap3\n      swap2\n      pop\n      pop\n      jump\t// out\n        /* \"#utility.yul\":1821:1925   */\n    tag_92:\n        /* \"#utility.yul\":1866:1873   */\n      0x00\n        /* \"#utility.yul\":1895:1919   */\n      tag_119\n        /* \"#utility.yul\":1913:1918   */\n      dup3\n        /* \"#utility.yul\":1895:1919   */\n      tag_120\n      jump\t// in\n    tag_119:\n        /* \"#utility.yul\":1884:1919   */\n      swap1\n      pop\n        /* \"#utility.yul\":1821:1925   */\n      swap2\n      swap1\n      pop\n      jump\t// out\n        /* \"#utility.yul\":1931:2058   */\n    tag_121:\n        /* \"#utility.yul\":1976:1983   */\n      0x00\n        /* \"#utility.yul\":2005:2010   */\n      dup2\n        /* \"#utility.yul\":1994:2010   */\n      swap1\n      pop\n        /* \"#utility.yul\":2011:2052   */\n      tag_123\n        /* \"#utility.yul\":2046:2051   */\n      dup3\n        /* \"#utility.yul\":2011:2052   */\n      tag_124\n      jump\t// in\n    tag_123:\n        /* \"#utility.yul\":1931:2058   */\n      swap2\n      swap1\n      pop\n      jump\t// out\n        /* \"#utility.yul\":2064:2190   */\n    tag_120:\n        /* \"#utility.yul\":2101:2108   */\n      0x00\n        /* \"#utility.yul\":2141:2183   */\n      0xffffffffffffffffffffffffffffffffffffffff\n        /* \"#utility.yul\":2134:2139   */\n      dup3\n        /* \"#utility.yul\":2130:2184   */\n      and\n        /* \"#utility.yul\":2119:2184   */\n      swap1\n      pop\n        /* \"#utility.yul\":2064:2190   */\n      swap2\n      swap1\n      pop\n      jump\t// out\n        /* \"#utility.yul\":2196:2273   */\n    tag_100:\n        /* \"#utility.yul\":2233:2240   */\n      0x00\n        /* \"#utility.yul\":2262:2267   */\n      dup2\n        /* \"#utility.yul\":2251:2267   */\n      swap1\n      pop\n        /* \"#utility.yul\":2196:2273   */\n      swap2\n      swap1\n      pop\n      jump\t// out\n        /* \"#utility.yul\":2279:2406   */\n    tag_96:\n        /* \"#utility.yul\":2335:2344   */\n      0x00\n        /* \"#utility.yul\":2368:2400   */\n      tag_128\n        /* \"#utility.yul\":2394:2399   */\n      dup3\n        /* \"#utility.yul\":2368:2400   */\n      tag_121\n      jump\t// in\n    tag_128:\n        /* \"#utility.yul\":2355:2400   */\n      swap1\n      pop\n        /* \"#utility.yul\":2279:2406   */\n      swap2\n      swap1\n      pop\n      jump\t// out\n        /* \"#utility.yul\":2412:2592   */\n    tag_112:\n        /* \"#utility.yul\":2460:2537   */\n      0x4e487b7100000000000000000000000000000000000000000000000000000000\n        /* \"#utility.yul\":2457:2458   */\n      0x00\n        /* \"#utility.yul\":2450:2538   */\n      mstore\n        /* \"#utility.yul\":2557:2561   */\n      0x11\n        /* \"#utility.yul\":2554:2555   */\n      0x04\n        /* \"#utility.yul\":2547:2562   */\n      mstore\n        /* \"#utility.yul\":2581:2585   */\n      0x24\n        /* \"#utility.yul\":2578:2579   */\n      0x00\n        /* \"#utility.yul\":2571:2586   */\n      revert\n        /* \"#utility.yul\":2598:2778   */\n    tag_47:\n        /* \"#utility.yul\":2646:2723   */\n      0x4e487b7100000000000000000000000000000000000000000000000000000000\n        /* \"#utility.yul\":2643:2644   */\n      0x00\n        /* \"#utility.yul\":2636:2724   */\n      mstore\n        /* \"#utility.yul\":2743:2747   */\n      0x21\n        /* \"#utility.yul\":2740:2741   */\n      0x04\n        /* \"#utility.yul\":2733:2748   */\n      mstore\n        /* \"#utility.yul\":2767:2771   */\n      0x24\n        /* \"#utility.yul\":2764:2765   */\n      0x00\n        /* \"#utility.yul\":2757:2772   */\n      revert\n        /* \"#utility.yul\":2784:2897   */\n    tag_124:\n        /* \"#utility.yul\":2865:2866   */\n      0x04\n        /* \"#utility.yul\":2858:2863   */\n      dup2\n        /* \"#utility.yul\":2855:2867   */\n      lt\n        /* \"#utility.yul\":2845:2891   */\n      tag_132\n      jumpi\n        /* \"#utility.yul\":2871:2889   */\n      tag_133\n      tag_47\n      jump\t// in\n    tag_133:\n        /* \"#utility.yul\":2845:2891   */\n    tag_132:\n        /* \"#utility.yul\":2784:2897   */\n      pop\n      jump\t// out\n\n    auxdata: 0xa2646970667358221220846b417f4f2d29124dcdf0611554e76bd647057e870231d821af4f1d6cccc51464736f6c63430008070033\n}\n",
				"bytecode": {
					"linkReferences": {},
					"object": "608060405233600160006101000a81548173ffffffffffffffffffffffffffffffffffffffff021916908373ffffffffffffffffffffffffffffffffffffffff16021790555060023461005291906100a4565b60008190555034600054600261006891906100d5565b1461009f576040517fbe3e4c4200000000000000000000000000000000000000000000000000000000815260040160405180910390fd5b610197565b60006100af8261012f565b91506100ba8361012f565b9250826100ca576100c9610168565b5b828204905092915050565b60006100e08261012f565b91506100eb8361012f565b9250817fffffffffffffffffffffffffffffffffffffffffffffffffffffffffffffffff048311821515161561012457610123610139565b5b828202905092915050565b6000819050919050565b7f4e487b7100000000000000000000000000000000000000000000000000000000600052601160045260246000fd5b7f4e487b7100000000000000000000000000000000000000000000000000000000600052601260045260246000fd5b61098e806101a66000396000f3fe60806040526004361061007b5760003560e01c8063679e9f3a1161004e578063679e9f3a146101045780637150d8ae1461012f578063c19d93fb1461015a578063d6960697146101855761007b565b806308551a531461008057806335a063b4146100ab5780633fa4f245146100c2578063482174ad146100ed575b600080fd5b34801561008c57600080fd5b5061009561018f565b6040516100a29190610784565b60405180910390f35b3480156100b757600080fd5b506100c06101b5565b005b3480156100ce57600080fd5b506100d761036d565b6040516100e491906107ba565b60405180910390f35b3480156100f957600080fd5b50610102610373565b005b34801561011057600080fd5b506101196105ec565b60405161012691906107ba565b60405180910390f35b34801561013b57600080fd5b506101446105f2565b6040516101519190610784565b60405180910390f35b34801561016657600080fd5b5061016f610618565b60405161017c919061079f565b60405180910390f35b61018d61062b565b005b600160009054906101000a900473ffffffffffffffffffffffffffffffffffffffff1681565b600160009054906101000a900473ffffffffffffffffffffffffffffffffffffffff1673ffffffffffffffffffffffffffffffffffffffff163373ffffffffffffffffffffffffffffffffffffffff161461023c576040517f85d1f72600000000000000000000000000000000000000000000000000000000815260040160405180910390fd5b600080600381111561025157610250610915565b5b600460009054906101000a900460ff16600381111561027357610272610915565b5b146102aa576040517fbaf3f0f700000000000000000000000000000000000000000000000000000000815260040160405180910390fd5b7f72c874aeff0b183a56e2b79c71b46e1aed4dee5e09862134b8821ba2fddbf8bf60405160405180910390a16003600460006101000a81548160ff021916908360038111156102fc576102fb610915565b5b0217905550600160009054906101000a900473ffffffffffffffffffffffffffffffffffffffff1673ffffffffffffffffffffffffffffffffffffffff166108fc479081150290604051600060405180830381858888f19350505050158015610369573d6000803e3d6000fd5b5050565b60005481565b600180600381111561038857610387610915565b5b600460009054906101000a900460ff1660038111156103aa576103a9610915565b5b146103e1576040517fbaf3f0f700000000000000000000000000000000000000000000000000000000815260040160405180910390fd5b600260009054906101000a900473ffffffffffffffffffffffffffffffffffffffff1673ffffffffffffffffffffffffffffffffffffffff163373ffffffffffffffffffffffffffffffffffffffff161415801561044d575061012c60035461044a91906107d5565b42105b15610484576040517fe4bfb80500000000000000000000000000000000000000000000000000000000815260040160405180910390fd5b7fe89152acd703c9d8c7d28829d443260b411454d45394e7995815140c8cbcbcf760405160405180910390a17ffda69c32bcfdba840a167777906b173b607eb8b4d8853b97a80d26e613d858db60405160405180910390a16003600460006101000a81548160ff0219169083600381111561050257610501610915565b5b0217905550600260009054906101000a900473ffffffffffffffffffffffffffffffffffffffff1673ffffffffffffffffffffffffffffffffffffffff166108fc6000549081150290604051600060405180830381858888f19350505050158015610571573d6000803e3d6000fd5b50600160009054906101000a900473ffffffffffffffffffffffffffffffffffffffff1673ffffffffffffffffffffffffffffffffffffffff166108fc60005460036105bd919061082b565b9081150290604051600060405180830381858888f193505050501580156105e8573d6000803e3d6000fd5b5050565b60035481565b600260009054906101000a900473ffffffffffffffffffffffffffffffffffffffff1681565b600460009054906101000a900460ff1681565b60008060038111156106405761063f610915565b5b600460009054906101000a900460ff16600381111561066257610661610915565b5b14610699576040517fbaf3f0f700000000000000000000000000000000000000000000000000000000815260040160405180910390fd5b60005460026106a8919061082b565b3414806106b457600080fd5b7fd5d55c8a68912e9a110618df8d5e2e83b8d83211c57a8ddd1203df92885dc88160405160405180910390a14260038190555033600260006101000a81548173ffffffffffffffffffffffffffffffffffffffff021916908373ffffffffffffffffffffffffffffffffffffffff1602179055506001600460006101000a81548160ff0219169083600381111561074e5761074d610915565b5b02179055505050565b61076081610885565b82525050565b61076f816108d4565b82525050565b61077e816108ca565b82525050565b60006020820190506107996000830184610757565b92915050565b60006020820190506107b46000830184610766565b92915050565b60006020820190506107cf6000830184610775565b92915050565b60006107e0826108ca565b91506107eb836108ca565b9250827fffffffffffffffffffffffffffffffffffffffffffffffffffffffffffffffff038211156108205761081f6108e6565b5b828201905092915050565b6000610836826108ca565b9150610841836108ca565b9250817fffffffffffffffffffffffffffffffffffffffffffffffffffffffffffffffff048311821515161561087a576108796108e6565b5b828202905092915050565b6000610890826108aa565b9050919050565b60008190506108a582610944565b919050565b600073ffffffffffffffffffffffffffffffffffffffff82169050919050565b6000819050919050565b60006108df82610897565b9050919050565b7f4e487b7100000000000000000000000000000000000000000000000000000000600052601160045260246000fd5b7f4e487b7100000000000000000000000000000000000000000000000000000000600052602160045260246000fd5b6004811061095557610954610915565b5b5056fea2646970667358221220846b417f4f2d29124dcdf0611554e76bd647057e870231d821af4f1d6cccc51464736f6c63430008070033",
					"opcodes": "PUSH1 0x80 PUSH1 0x40 MSTORE CALLER PUSH1 0x1 PUSH1 0x0 PUSH2 0x100 EXP DUP2 SLOAD DUP2 PUSH20 0xFFFFFFFFFFFFFFFFFFFFFFFFFFFFFFFFFFFFFFFF MUL NOT AND SWAP1 DUP4 PUSH20 0xFFFFFFFFFFFFFFFFFFFFFFFFFFFFFFFFFFFFFFFF AND MUL OR SWAP1 SSTORE POP PUSH1 0x2 CALLVALUE PUSH2 0x52 SWAP2 SWAP1 PUSH2 0xA4 JUMP JUMPDEST PUSH1 0x0 DUP2 SWAP1 SSTORE POP CALLVALUE PUSH1 0x0 SLOAD PUSH1 0x2 PUSH2 0x68 SWAP2 SWAP1 PUSH2 0xD5 JUMP JUMPDEST EQ PUSH2 0x9F JUMPI PUSH1 0x40 MLOAD PUSH32 0xBE3E4C4200000000000000000000000000000000000000000000000000000000 DUP2 MSTORE PUSH1 0x4 ADD PUSH1 0x40 MLOAD DUP1 SWAP2 SUB SWAP1 REVERT JUMPDEST PUSH2 0x197 JUMP JUMPDEST PUSH1 0x0 PUSH2 0xAF DUP3 PUSH2 0x12F JUMP JUMPDEST SWAP2 POP PUSH2 0xBA DUP4 PUSH2 0x12F JUMP JUMPDEST SWAP3 POP DUP3 PUSH2 0xCA JUMPI PUSH2 0xC9 PUSH2 0x168 JUMP JUMPDEST JUMPDEST DUP3 DUP3 DIV SWAP1 POP SWAP3 SWAP2 POP POP JUMP JUMPDEST PUSH1 0x0 PUSH2 0xE0 DUP3 PUSH2 0x12F JUMP JUMPDEST SWAP2 POP PUSH2 0xEB DUP4 PUSH2 0x12F JUMP JUMPDEST SWAP3 POP DUP2 PUSH32 0xFFFFFFFFFFFFFFFFFFFFFFFFFFFFFFFFFFFFFFFFFFFFFFFFFFFFFFFFFFFFFFFF DIV DUP4 GT DUP3 ISZERO ISZERO AND ISZERO PUSH2 0x124 JUMPI PUSH2 0x123 PUSH2 0x139 JUMP JUMPDEST JUMPDEST DUP3 DUP3 MUL SWAP1 POP SWAP3 SWAP2 POP POP JUMP JUMPDEST PUSH1 0x0 DUP2 SWAP1 POP SWAP2 SWAP1 POP JUMP JUMPDEST PUSH32 0x4E487B7100000000000000000000000000000000000000000000000000000000 PUSH1 0x0 MSTORE PUSH1 0x11 PUSH1 0x4 MSTORE PUSH1 0x24 PUSH1 0x0 REVERT JUMPDEST PUSH32 0x4E487B7100000000000000000000000000000000000000000000000000000000 PUSH1 0x0 MSTORE PUSH1 0x12 PUSH1 0x4 MSTORE PUSH1 0x24 PUSH1 0x0 REVERT JUMPDEST PUSH2 0x98E DUP1 PUSH2 0x1A6 PUSH1 0x0 CODECOPY PUSH1 0x0 RETURN INVALID PUSH1 0x80 PUSH1 0x40 MSTORE PUSH1 0x4 CALLDATASIZE LT PUSH2 0x7B JUMPI PUSH1 0x0 CALLDATALOAD PUSH1 0xE0 SHR DUP1 PUSH4 0x679E9F3A GT PUSH2 0x4E JUMPI DUP1 PUSH4 0x679E9F3A EQ PUSH2 0x104 JUMPI DUP1 PUSH4 0x7150D8AE EQ PUSH2 0x12F JUMPI DUP1 PUSH4 0xC19D93FB EQ PUSH2 0x15A JUMPI DUP1 PUSH4 0xD6960697 EQ PUSH2 0x185 JUMPI PUSH2 0x7B JUMP JUMPDEST DUP1 PUSH4 0x8551A53 EQ PUSH2 0x80 JUMPI DUP1 PUSH4 0x35A063B4 EQ PUSH2 0xAB JUMPI DUP1 PUSH4 0x3FA4F245 EQ PUSH2 0xC2 JUMPI DUP1 PUSH4 0x482174AD EQ PUSH2 0xED JUMPI JUMPDEST PUSH1 0x0 DUP1 REVERT JUMPDEST CALLVALUE DUP1 ISZERO PUSH2 0x8C JUMPI PUSH1 0x0 DUP1 REVERT JUMPDEST POP PUSH2 0x95 PUSH2 0x18F JUMP JUMPDEST PUSH1 0x40 MLOAD PUSH2 0xA2 SWAP2 SWAP1 PUSH2 0x784 JUMP JUMPDEST PUSH1 0x40 MLOAD DUP1 SWAP2 SUB SWAP1 RETURN JUMPDEST CALLVALUE DUP1 ISZERO PUSH2 0xB7 JUMPI PUSH1 0x0 DUP1 REVERT JUMPDEST POP PUSH2 0xC0 PUSH2 0x1B5 JUMP JUMPDEST STOP JUMPDEST CALLVALUE DUP1 ISZERO PUSH2 0xCE JUMPI PUSH1 0x0 DUP1 REVERT JUMPDEST POP PUSH2 0xD7 PUSH2 0x36D JUMP JUMPDEST PUSH1 0x40 MLOAD PUSH2 0xE4 SWAP2 SWAP1 PUSH2 0x7BA JUMP JUMPDEST PUSH1 0x40 MLOAD DUP1 SWAP2 SUB SWAP1 RETURN JUMPDEST CALLVALUE DUP1 ISZERO PUSH2 0xF9 JUMPI PUSH1 0x0 DUP1 REVERT JUMPDEST POP PUSH2 0x102 PUSH2 0x373 JUMP JUMPDEST STOP JUMPDEST CALLVALUE DUP1 ISZERO PUSH2 0x110 JUMPI PUSH1 0x0 DUP1 REVERT JUMPDEST POP PUSH2 0x119 PUSH2 0x5EC JUMP JUMPDEST PUSH1 0x40 MLOAD PUSH2 0x126 SWAP2 SWAP1 PUSH2 0x7BA JUMP JUMPDEST PUSH1 0x40 MLOAD DUP1 SWAP2 SUB SWAP1 RETURN JUMPDEST CALLVALUE DUP1 ISZERO PUSH2 0x13B JUMPI PUSH1 0x0 DUP1 REVERT JUMPDEST POP PUSH2 0x144 PUSH2 0x5F2 JUMP JUMPDEST PUSH1 0x40 MLOAD PUSH2 0x151 SWAP2 SWAP1 PUSH2 0x784 JUMP JUMPDEST PUSH1 0x40 MLOAD DUP1 SWAP2 SUB SWAP1 RETURN JUMPDEST CALLVALUE DUP1 ISZERO PUSH2 0x166 JUMPI PUSH1 0x0 DUP1 REVERT JUMPDEST POP PUSH2 0x16F PUSH2 0x618 JUMP JUMPDEST PUSH1 0x40 MLOAD PUSH2 0x17C SWAP2 SWAP1 PUSH2 0x79F JUMP JUMPDEST PUSH1 0x40 MLOAD DUP1 SWAP2 SUB SWAP1 RETURN JUMPDEST PUSH2 0x18D PUSH2 0x62B JUMP JUMPDEST STOP JUMPDEST PUSH1 0x1 PUSH1 0x0 SWAP1 SLOAD SWAP1 PUSH2 0x100 EXP SWAP1 DIV PUSH20 0xFFFFFFFFFFFFFFFFFFFFFFFFFFFFFFFFFFFFFFFF AND DUP2 JUMP JUMPDEST PUSH1 0x1 PUSH1 0x0 SWAP1 SLOAD SWAP1 PUSH2 0x100 EXP SWAP1 DIV PUSH20 0xFFFFFFFFFFFFFFFFFFFFFFFFFFFFFFFFFFFFFFFF AND PUSH20 0xFFFFFFFFFFFFFFFFFFFFFFFFFFFFFFFFFFFFFFFF AND CALLER PUSH20 0xFFFFFFFFFFFFFFFFFFFFFFFFFFFFFFFFFFFFFFFF AND EQ PUSH2 0x23C JUMPI PUSH1 0x40 MLOAD PUSH32 0x85D1F72600000000000000000000000000000000000000000000000000000000 DUP2 MSTORE PUSH1 0x4 ADD PUSH1 0x40 MLOAD DUP1 SWAP2 SUB SWAP1 REVERT JUMPDEST PUSH1 0x0 DUP1 PUSH1 0x3 DUP2 GT ISZERO PUSH2 0x251 JUMPI PUSH2 0x250 PUSH2 0x915 JUMP JUMPDEST JUMPDEST PUSH1 0x4 PUSH1 0x0 SWAP1 SLOAD SWAP1 PUSH2 0x100 EXP SWAP1 DIV PUSH1 0xFF AND PUSH1 0x3 DUP2 GT ISZERO PUSH2 0x273 JUMPI PUSH2 0x272 PUSH2 0x915 JUMP JUMPDEST JUMPDEST EQ PUSH2 0x2AA JUMPI PUSH1 0x40 MLOAD PUSH32 0xBAF3F0F700000000000000000000000000000000000000000000000000000000 DUP2 MSTORE PUSH1 0x4 ADD PUSH1 0x40 MLOAD DUP1 SWAP2 SUB SWAP1 REVERT JUMPDEST PUSH32 0x72C874AEFF0B183A56E2B79C71B46E1AED4DEE5E09862134B8821BA2FDDBF8BF PUSH1 0x40 MLOAD PUSH1 0x40 MLOAD DUP1 SWAP2 SUB SWAP1 LOG1 PUSH1 0x3 PUSH1 0x4 PUSH1 0x0 PUSH2 0x100 EXP DUP2 SLOAD DUP2 PUSH1 0xFF MUL NOT AND SWAP1 DUP4 PUSH1 0x3 DUP2 GT ISZERO PUSH2 0x2FC JUMPI PUSH2 0x2FB PUSH2 0x915 JUMP JUMPDEST JUMPDEST MUL OR SWAP1 SSTORE POP PUSH1 0x1 PUSH1 0x0 SWAP1 SLOAD SWAP1 PUSH2 0x100 EXP SWAP1 DIV PUSH20 0xFFFFFFFFFFFFFFFFFFFFFFFFFFFFFFFFFFFFFFFF AND PUSH20 0xFFFFFFFFFFFFFFFFFFFFFFFFFFFFFFFFFFFFFFFF AND PUSH2 0x8FC SELFBALANCE SWAP1 DUP2 ISZERO MUL SWAP1 PUSH1 0x40 MLOAD PUSH1 0x0 PUSH1 0x40 MLOAD DUP1 DUP4 SUB DUP2 DUP6 DUP9 DUP9 CALL SWAP4 POP POP POP POP ISZERO DUP1 ISZERO PUSH2 0x369 JUMPI RETURNDATASIZE PUSH1 0x0 DUP1 RETURNDATACOPY RETURNDATASIZE PUSH1 0x0 REVERT JUMPDEST POP POP JUMP JUMPDEST PUSH1 0x0 SLOAD DUP2 JUMP JUMPDEST PUSH1 0x1 DUP1 PUSH1 0x3 DUP2 GT ISZERO PUSH2 0x388 JUMPI PUSH2 0x387 PUSH2 0x915 JUMP JUMPDEST JUMPDEST PUSH1 0x4 PUSH1 0x0 SWAP1 SLOAD SWAP1 PUSH2 0x100 EXP SWAP1 DIV PUSH1 0xFF AND PUSH1 0x3 DUP2 GT ISZERO PUSH2 0x3AA JUMPI PUSH2 0x3A9 PUSH2 0x915 JUMP JUMPDEST JUMPDEST EQ PUSH2 0x3E1 JUMPI PUSH1 0x40 MLOAD PUSH32 0xBAF3F0F700000000000000000000000000000000000000000000000000000000 DUP2 MSTORE PUSH1 0x4 ADD PUSH1 0x40 MLOAD DUP1 SWAP2 SUB SWAP1 REVERT JUMPDEST PUSH1 0x2 PUSH1 0x0 SWAP1 SLOAD SWAP1 PUSH2 0x100 EXP SWAP1 DIV PUSH20 0xFFFFFFFFFFFFFFFFFFFFFFFFFFFFFFFFFFFFFFFF AND PUSH20 0xFFFFFFFFFFFFFFFFFFFFFFFFFFFFFFFFFFFFFFFF AND CALLER PUSH20 0xFFFFFFFFFFFFFFFFFFFFFFFFFFFFFFFFFFFFFFFF AND EQ ISZERO DUP1 ISZERO PUSH2 0x44D JUMPI POP PUSH2 0x12C PUSH1 0x3 SLOAD PUSH2 0x44A SWAP2 SWAP1 PUSH2 0x7D5 JUMP JUMPDEST TIMESTAMP LT JUMPDEST ISZERO PUSH2 0x484 JUMPI PUSH1 0x40 MLOAD PUSH32 0xE4BFB80500000000000000000000000000000000000000000000000000000000 DUP2 MSTORE PUSH1 0x4 ADD PUSH1 0x40 MLOAD DUP1 SWAP2 SUB SWAP1 REVERT JUMPDEST PUSH32 0xE89152ACD703C9D8C7D28829D443260B411454D45394E7995815140C8CBCBCF7 PUSH1 0x40 MLOAD PUSH1 0x40 MLOAD DUP1 SWAP2 SUB SWAP1 LOG1 PUSH32 0xFDA69C32BCFDBA840A167777906B173B607EB8B4D8853B97A80D26E613D858DB PUSH1 0x40 MLOAD PUSH1 0x40 MLOAD DUP1 SWAP2 SUB SWAP1 LOG1 PUSH1 0x3 PUSH1 0x4 PUSH1 0x0 PUSH2 0x100 EXP DUP2 SLOAD DUP2 PUSH1 0xFF MUL NOT AND SWAP1 DUP4 PUSH1 0x3 DUP2 GT ISZERO PUSH2 0x502 JUMPI PUSH2 0x501 PUSH2 0x915 JUMP JUMPDEST JUMPDEST MUL OR SWAP1 SSTORE POP PUSH1 0x2 PUSH1 0x0 SWAP1 SLOAD SWAP1 PUSH2 0x100 EXP SWAP1 DIV PUSH20 0xFFFFFFFFFFFFFFFFFFFFFFFFFFFFFFFFFFFFFFFF AND PUSH20 0xFFFFFFFFFFFFFFFFFFFFFFFFFFFFFFFFFFFFFFFF AND PUSH2 0x8FC PUSH1 0x0 SLOAD SWAP1 DUP2 ISZERO MUL SWAP1 PUSH1 0x40 MLOAD PUSH1 0x0 PUSH1 0x40 MLOAD DUP1 DUP4 SUB DUP2 DUP6 DUP9 DUP9 CALL SWAP4 POP POP POP POP ISZERO DUP1 ISZERO PUSH2 0x571 JUMPI RETURNDATASIZE PUSH1 0x0 DUP1 RETURNDATACOPY RETURNDATASIZE PUSH1 0x0 REVERT JUMPDEST POP PUSH1 0x1 PUSH1 0x0 SWAP1 SLOAD SWAP1 PUSH2 0x100 EXP SWAP1 DIV PUSH20 0xFFFFFFFFFFFFFFFFFFFFFFFFFFFFFFFFFFFFFFFF AND PUSH20 0xFFFFFFFFFFFFFFFFFFFFFFFFFFFFFFFFFFFFFFFF AND PUSH2 0x8FC PUSH1 0x0 SLOAD PUSH1 0x3 PUSH2 0x5BD SWAP2 SWAP1 PUSH2 0x82B JUMP JUMPDEST SWAP1 DUP2 ISZERO MUL SWAP1 PUSH1 0x40 MLOAD PUSH1 0x0 PUSH1 0x40 MLOAD DUP1 DUP4 SUB DUP2 DUP6 DUP9 DUP9 CALL SWAP4 POP POP POP POP ISZERO DUP1 ISZERO PUSH2 0x5E8 JUMPI RETURNDATASIZE PUSH1 0x0 DUP1 RETURNDATACOPY RETURNDATASIZE PUSH1 0x0 REVERT JUMPDEST POP POP JUMP JUMPDEST PUSH1 0x3 SLOAD DUP2 JUMP JUMPDEST PUSH1 0x2 PUSH1 0x0 SWAP1 SLOAD SWAP1 PUSH2 0x100 EXP SWAP1 DIV PUSH20 0xFFFFFFFFFFFFFFFFFFFFFFFFFFFFFFFFFFFFFFFF AND DUP2 JUMP JUMPDEST PUSH1 0x4 PUSH1 0x0 SWAP1 SLOAD SWAP1 PUSH2 0x100 EXP SWAP1 DIV PUSH1 0xFF AND DUP2 JUMP JUMPDEST PUSH1 0x0 DUP1 PUSH1 0x3 DUP2 GT ISZERO PUSH2 0x640 JUMPI PUSH2 0x63F PUSH2 0x915 JUMP JUMPDEST JUMPDEST PUSH1 0x4 PUSH1 0x0 SWAP1 SLOAD SWAP1 PUSH2 0x100 EXP SWAP1 DIV PUSH1 0xFF AND PUSH1 0x3 DUP2 GT ISZERO PUSH2 0x662 JUMPI PUSH2 0x661 PUSH2 0x915 JUMP JUMPDEST JUMPDEST EQ PUSH2 0x699 JUMPI PUSH1 0x40 MLOAD PUSH32 0xBAF3F0F700000000000000000000000000000000000000000000000000000000 DUP2 MSTORE PUSH1 0x4 ADD PUSH1 0x40 MLOAD DUP1 SWAP2 SUB SWAP1 REVERT JUMPDEST PUSH1 0x0 SLOAD PUSH1 0x2 PUSH2 0x6A8 SWAP2 SWAP1 PUSH2 0x82B JUMP JUMPDEST CALLVALUE EQ DUP1 PUSH2 0x6B4 JUMPI PUSH1 0x0 DUP1 REVERT JUMPDEST PUSH32 0xD5D55C8A68912E9A110618DF8D5E2E83B8D83211C57A8DDD1203DF92885DC881 PUSH1 0x40 MLOAD PUSH1 0x40 MLOAD DUP1 SWAP2 SUB SWAP1 LOG1 TIMESTAMP PUSH1 0x3 DUP2 SWAP1 SSTORE POP CALLER PUSH1 0x2 PUSH1 0x0 PUSH2 0x100 EXP DUP2 SLOAD DUP2 PUSH20 0xFFFFFFFFFFFFFFFFFFFFFFFFFFFFFFFFFFFFFFFF MUL NOT AND SWAP1 DUP4 PUSH20 0xFFFFFFFFFFFFFFFFFFFFFFFFFFFFFFFFFFFFFFFF AND MUL OR SWAP1 SSTORE POP PUSH1 0x1 PUSH1 0x4 PUSH1 0x0 PUSH2 0x100 EXP DUP2 SLOAD DUP2 PUSH1 0xFF MUL NOT AND SWAP1 DUP4 PUSH1 0x3 DUP2 GT ISZERO PUSH2 0x74E JUMPI PUSH2 0x74D PUSH2 0x915 JUMP JUMPDEST JUMPDEST MUL OR SWAP1 SSTORE POP POP POP JUMP JUMPDEST PUSH2 0x760 DUP2 PUSH2 0x885 JUMP JUMPDEST DUP3 MSTORE POP POP JUMP JUMPDEST PUSH2 0x76F DUP2 PUSH2 0x8D4 JUMP JUMPDEST DUP3 MSTORE POP POP JUMP JUMPDEST PUSH2 0x77E DUP2 PUSH2 0x8CA JUMP JUMPDEST DUP3 MSTORE POP POP JUMP JUMPDEST PUSH1 0x0 PUSH1 0x20 DUP3 ADD SWAP1 POP PUSH2 0x799 PUSH1 0x0 DUP4 ADD DUP5 PUSH2 0x757 JUMP JUMPDEST SWAP3 SWAP2 POP POP JUMP JUMPDEST PUSH1 0x0 PUSH1 0x20 DUP3 ADD SWAP1 POP PUSH2 0x7B4 PUSH1 0x0 DUP4 ADD DUP5 PUSH2 0x766 JUMP JUMPDEST SWAP3 SWAP2 POP POP JUMP JUMPDEST PUSH1 0x0 PUSH1 0x20 DUP3 ADD SWAP1 POP PUSH2 0x7CF PUSH1 0x0 DUP4 ADD DUP5 PUSH2 0x775 JUMP JUMPDEST SWAP3 SWAP2 POP POP JUMP JUMPDEST PUSH1 0x0 PUSH2 0x7E0 DUP3 PUSH2 0x8CA JUMP JUMPDEST SWAP2 POP PUSH2 0x7EB DUP4 PUSH2 0x8CA JUMP JUMPDEST SWAP3 POP DUP3 PUSH32 0xFFFFFFFFFFFFFFFFFFFFFFFFFFFFFFFFFFFFFFFFFFFFFFFFFFFFFFFFFFFFFFFF SUB DUP3 GT ISZERO PUSH2 0x820 JUMPI PUSH2 0x81F PUSH2 0x8E6 JUMP JUMPDEST JUMPDEST DUP3 DUP3 ADD SWAP1 POP SWAP3 SWAP2 POP POP JUMP JUMPDEST PUSH1 0x0 PUSH2 0x836 DUP3 PUSH2 0x8CA JUMP JUMPDEST SWAP2 POP PUSH2 0x841 DUP4 PUSH2 0x8CA JUMP JUMPDEST SWAP3 POP DUP2 PUSH32 0xFFFFFFFFFFFFFFFFFFFFFFFFFFFFFFFFFFFFFFFFFFFFFFFFFFFFFFFFFFFFFFFF DIV DUP4 GT DUP3 ISZERO ISZERO AND ISZERO PUSH2 0x87A JUMPI PUSH2 0x879 PUSH2 0x8E6 JUMP JUMPDEST JUMPDEST DUP3 DUP3 MUL SWAP1 POP SWAP3 SWAP2 POP POP JUMP JUMPDEST PUSH1 0x0 PUSH2 0x890 DUP3 PUSH2 0x8AA JUMP JUMPDEST SWAP1 POP SWAP2 SWAP1 POP JUMP JUMPDEST PUSH1 0x0 DUP2 SWAP1 POP PUSH2 0x8A5 DUP3 PUSH2 0x944 JUMP JUMPDEST SWAP2 SWAP1 POP JUMP JUMPDEST PUSH1 0x0 PUSH20 0xFFFFFFFFFFFFFFFFFFFFFFFFFFFFFFFFFFFFFFFF DUP3 AND SWAP1 POP SWAP2 SWAP1 POP JUMP JUMPDEST PUSH1 0x0 DUP2 SWAP1 POP SWAP2 SWAP1 POP JUMP JUMPDEST PUSH1 0x0 PUSH2 0x8DF DUP3 PUSH2 0x897 JUMP JUMPDEST SWAP1 POP SWAP2 SWAP1 POP JUMP JUMPDEST PUSH32 0x4E487B7100000000000000000000000000000000000000000000000000000000 PUSH1 0x0 MSTORE PUSH1 0x11 PUSH1 0x4 MSTORE PUSH1 0x24 PUSH1 0x0 REVERT JUMPDEST PUSH32 0x4E487B7100000000000000000000000000000000000000000000000000000000 PUSH1 0x0 MSTORE PUSH1 0x21 PUSH1 0x4 MSTORE PUSH1 0x24 PUSH1 0x0 REVERT JUMPDEST PUSH1 0x4 DUP2 LT PUSH2 0x955 JUMPI PUSH2 0x954 PUSH2 0x915 JUMP JUMPDEST JUMPDEST POP JUMP INVALID LOG2 PUSH5 0x6970667358 0x22 SLT KECCAK256 DUP5 PUSH12 0x417F4F2D29124DCDF0611554 0xE7 PUSH12 0xD647057E870231D821AF4F1D PUSH13 0xCCC51464736F6C634300080700 CALLER "
				},
				"gasEstimates": {
					"creation": {
						"codeDepositCost": "489200",
						"executionCost": "infinite",
						"totalCost": "infinite"
					},
					"external": {
						"abort()": "infinite",
						"buyer()": "2536",
						"completePurchase()": "infinite",
						"confirmPurchase()": "infinite",
						"confirmationTime()": "2429",
						"seller()": "2515",
						"state()": "2604",
						"value()": "2474"
					}
				},
				"methodIdentifiers": {
					"abort()": "35a063b4",
					"buyer()": "7150d8ae",
					"completePurchase()": "482174ad",
					"confirmPurchase()": "d6960697",
					"confirmationTime()": "679e9f3a",
					"seller()": "08551a53",
					"state()": "c19d93fb",
					"value()": "3fa4f245"
				}
			},
			"storageLayout": {
				"storage": [
					{
						"astId": 3,
						"contract": "purchase.sol:Purchase",
						"label": "value",
						"offset": 0,
						"slot": "0",
						"type": "t_uint256"
					},
					{
						"astId": 5,
						"contract": "purchase.sol:Purchase",
						"label": "seller",
						"offset": 0,
						"slot": "1",
						"type": "t_address_payable"
					},
					{
						"astId": 7,
						"contract": "purchase.sol:Purchase",
						"label": "buyer",
						"offset": 0,
						"slot": "2",
						"type": "t_address_payable"
					},
					{
						"astId": 9,
						"contract": "purchase.sol:Purchase",
						"label": "confirmationTime",
						"offset": 0,
						"slot": "3",
						"type": "t_uint256"
					},
					{
						"astId": 17,
						"contract": "purchase.sol:Purchase",
						"label": "state",
						"offset": 0,
						"slot": "4",
						"type": "t_enum(State)14"
					}
				],
				"types": {
					"t_address_payable": {
						"encoding": "inplace",
						"label": "address payable",
						"numberOfBytes": "20"
					},
					"t_enum(State)14": {
						"encoding": "inplace",
						"label": "enum Purchase.State",
						"numberOfBytes": "1"
					},
					"t_uint256": {
						"encoding": "inplace",
						"label": "uint256",
						"numberOfBytes": "32"
					}
				}
			},
			"userdoc": {
				"errors": {
					"BuyerDeadlineNotExceeded()": [
						{
							"notice": "Caller is not the buyer and the buyer still has time left since confirming the purchase. "
						}
					],
					"InvalidState()": [
						{
							"notice": "The function cannot be called at the current state."
						}
					],
					"OnlyBuyer()": [
						{
							"notice": "Only the buyer can call this function."
						}
					],
					"OnlySeller()": [
						{
							"notice": "Only the seller can call this function."
						}
					],
					"ValueNotEven()": [
						{
							"notice": "The provided value has to be even."
						}
					]
				},
				"kind": "user",
				"methods": {
					"abort()": {
						"notice": "Abort the purchase and reclaim the ether. Can only be called by the seller before the contract is locked."
					},
					"confirmPurchase()": {
						"notice": "Confirm the purchase as buyer. Transaction has to include `2 * value` ether. The ether will be locked until confirmReceived is called."
					}
				},
				"version": 1
			}
		}
	}
}